:020000040800F2
:10000000180A002091010008B50C0008AD0C00088A
:10001000B10C0008210B00082114000800000000AA
:10002000000000000000000000000000990F000820
:10003000790B000800000000B70C000885100008CC
:10004000AB010008AB010008AB010008AB010008E0
:10005000AB010008AB010008AB010008AB010008D0
:10006000AB010008AB010008AB010008AB010008C0
:10007000AB010008AB010008AB010008AB010008B0
:10008000AB010008AB010008AB010008AB010008A0
:10009000AB010008AB010008AB010008AB01000890
:1000A000AB010008AB010008AB010008AB01000880
:1000B000E9100008AB010008AB010008AB01000823
:1000C000AB010008AB010008AB010008AB01000860
:1000D000AB010008AB010008AB010008AB01000850
:1000E000AB010008AB010008AB01000800F002F80A
:1000F00000F03FF80AA090E8000C82448344AAF183
:100100000107DA4501D100F034F8AFF2090EBAE880
:100110000F0013F0010F18BFFB1A43F0010318473B
:10012000F413000014140000103A24BF78C878C1FA
:10013000FAD8520724BF30C830C144BF04680C60ED
:10014000704700000023002400250026103A28BF35
:1001500078C1FBD8520728BF30C148BF0B60704739
:10016000642900F07D80002070471FB51FBD10B5C9
:1001700010BD00F073F91146FFF7F7FF01F05EF9CB
:1001800000F091F903B4FFF7F2FF03BC00F098F917
:100190000948804709480047FEE7FEE7FEE7FEE71B
:1001A000FEE7FEE7FEE7FEE7FEE7FEE70448054957
:1001B000054A064B7047000089100008ED00000852
:1001C00018040020180A0020180600201806002035
:1001D0000FB41CB5074B06AA7B44694600900598EE
:1001E00000F0FDF80020694600F00CF91CBC5DF839
:1001F00014FB0000290200002DE9F0410E460446E0
:10020000002020622046E168884730B3252805D0C9
:10021000D4E901219047206A401CF2E7E1682046BA
:1002200000278847050018D0A5F14100192802D8F9
:1002300020354FF400673246294620462760FFF7F5
:100240008FFF40B1012804D0F61D26F007060836BE
:10025000D8E7361DD6E72846DAE7206ABDE8F08100
:100260002DE9F0410646002410687529314616A58F
:1002700010D0AFF30080002802DA404213A507E057
:1002800031688A0701D512A502E0490704D511A5F6
:10029000012401E0AFF3008000210A2206F12407C7
:1002A00009E0B0FBF2FCB0FBF2F302FB1C003030C3
:1002B00078541846491C0028F3D123462A46304674
:1002C000BDE8F04100F02DB8000000002D00000056
:1002D0002B000000200000004FF000020429C0F0B5
:1002E000128010F0030C00F09480CCF1040CBCF1EF
:1002F000020F18BF00F8012BA8BF20F8022BA1EBBA
:100300000C0100F086B85FEAC17C24BF00F8012B25
:1003100000F8012B48BF00F8012B70477047704769
:1003200070472DE9F0470D4699469246044600F184
:1003300024080168880604D5E06921F010012160D5
:1003400000E00120A84201DD471B00E00027A16971
:100350007A1902EB0900081AA0612078C00602D4BD
:100360002046AFF30080002608E0D4E901211AF806
:1003700006009047206A401C761C20624E45F4DB44
:100380002078C0060AD52046AFF3008006E0D4E905
:10039000012130209047206A401C2062381EA7F1BE
:1003A0000107F4DC07E0D4E9012118F805009047C3
:1003B000206A401C2062281EA5F10105F3DC2046BE
:1003C000AFF300802078000602D50220BDE8F08758
:1003D0000120FBE701694A1C02610878704700B5FB
:1003E0008FB0CDE901310021059105497944CDE96E
:1003F000031011466846FFF7FFFE0FB000BD000076
:10040000E5FFFFFF0A6802F8010B0A6070474FF032
:10041000000200B5134694469646203922BFA0E854
:100420000C50A0E80C50B1F12001BFF4F7AF090760
:1004300028BFA0E80C5048BF0CC05DF804EB890051
:1004400028BF40F8042B08BF704748BF20F8022B94
:1004500011F0804F18BF00F8012B7047754600F06F
:100460002BF8AE4605006946534620F00700854646
:1004700018B020B5FFF79AFEBDE820404FF0000607
:100480004FF000074FF000084FF0000B21F007017C
:10049000AC46ACE8C009ACE8C009ACE8C009ACE8BF
:1004A000C0098D46704710B50446AFF30080204662
:1004B000BDE81040FFF766BE00487047B803002053
:1004C00001491820ABBEFEE726000200704721B1AB
:1004D000826842F00102826003E0826822F0010239
:1004E0008260704721B1826842F48072826003E0CA
:1004F000826822F4807282607047014600208A6818
:1005000002F004020AB1012000E000207047014619
:1005100000208A6802F008020AB1012000E00020F1
:100520007047000030B502460020002350680F4C91
:1005300020400D790C6844EA0524204350609068FF
:100540000B4C2040D1E902542C434D7944EA450438
:1005500020439060D06A20F470000C7C641EE4B2EA
:10056000234340EA0350D06230BD0000FFFEF0FF9D
:10057000FDF7F1FFF0B504460D4600200021092DDE
:1005800011DDE068A5F10A0606EB4607072606FA24
:1005900007F18843A5F10A0606EB460603FA06F1C1
:1005A0000843E0600CE0206905EB4507072606FAE2
:1005B00007F1884305EB450603FA06F1084320617D
:1005C000072A0FDA606B561E06EB86071F2606FA0F
:1005D00007F18843561E06EB860605FA06F1084326
:1005E000606322E00D2A0FDA206BD61F06EB860728
:1005F0001F2606FA07F18843D61F06EB860605FA82
:1006000006F10843206310E0E06AA2F10D0606EB54
:1006100086071F2606FA07F18843A2F10D0606EBAE
:10062000860605FA06F10843E062F0BD816841F0F4
:1006300008018160704721B1826842F4A0028260A3
:1006400003E0826822F4A00282607047816841F072
:1006500004018160704710B500F0FEF800F022F947
:1006600000F006F800F0D0F900F002FA10BD00002A
:1006700010B50121480200F04BFB01206E490880B3
:100680000020C8706D4800F078FA02206A4908809E
:100690000020C870694800F070FA0420664908809C
:1006A0000020C870654800F068FA08206249088098
:1006B0000020C870614800F060FA10205E49088090
:1006C0000020C8705D4800F058FA20205A49088080
:1006D0000020C870594800F050FA40205649088060
:1006E0000020C870554800F048FA80205249088020
:1006F0000020C870514800F040FA01204E4908809F
:100700000020C8704E4800F038FA02204A4908809C
:100710000020C8704A4800F030FA002049490860BB
:100720000120087148714FF4602088600020C86083
:100730000A2008744448FFF7F5FE07230122002130
:100740004148FFF717FF0723022201213E48FFF728
:1007500011FF0723032202213B48FFF70BFF07236A
:10076000042203213848FFF705FF0723052204214F
:100770003548FFF7FFFE0723062205213248FFF721
:10078000F9FE07231A4606212F48FFF7F3FE072339
:10079000082219462C48FFF7EDFE072309220821FD
:1007A0002948FFF7E7FE07230A2209212648FFF719
:1007B000E1FE0121084600F08BFA0A202349C860B7
:1007C000002088608862224848604FF48060C861D9
:1007D00080204861202008621B484C30086080154A
:1007E0008861002008614FF400504862194800F009
:1007F000A5F90121174800F095F901211248FFF7EA
:1008000066FE01211048FFF76DFE0F48FFF70EFF4F
:1008100000BF0D48FFF77BFE0028FAD10A48FFF71A
:1008200015FF00BF0848FFF768FE0028FAD1012134
:100830000548FFF700FF10BD1C0000200008014024
:10084000000C0140F00000200024014004010020C1
:10085000120200200800024010B500F069FA4FF4BF
:10086000803000F01FFB00BF00F07AFB0128FBD1B5
:100870000921000400F05AFB012000F051FB022086
:1008800000F062FB002000F001FB4FF4806000F0FC
:100890002FFB002000F038FB4FF4804000F00CFAF2
:1008A00010BD000010B501211C2000F031FA4FF4FA
:1008B000005051490880022088704820C8704F4875
:1008C00000F05BF94FF480404B49088002208870AB
:1008D0004820C870494800F050F94FF4004046499C
:1008E0000880022088704820C870444800F045F90C
:1008F0004FF4805040490880022088701020C87052
:100900003F4800F03AF904203B49088002208870F3
:100910001020C8703A4800F030F94FF48040364952
:100920000880022088701020C870354800F025F932
:100930004FF4005030490880022088701020C870A1
:100940002F4800F01AF94FF480502B4908800220FC
:1009500088701020C8702A4800F00FF94FF400404A
:1009600025490880022088701020C870244800F0B3
:1009700004F94FF48050204908800220887010202C
:10098000C8701F4800F0F9F84FF400601A49088059
:10099000022088701020C8701A4800F0EEF84FF45A
:1009A000805015490880022088701020C8701448B3
:1009B00000F0E3F84FF480700F490880022088703F
:1009C0001020C8700E4800F0D8F820200A4908808E
:1009D000022088701020C870094800F0CEF84FF44B
:1009E000006005490880022088701020C870044803
:1009F00000F0C3F810BD00001C00002000100140F2
:100A0000000C01400008014010B50121084600F02B
:100A10006FF940F2CF20144908800020C880488038
:100A200009208880002008724FF0804000F0F0FB21
:100A30000121880700F0C5FB01221146900700F054
:100A4000DDFB1C20094908700220487088700120D5
:100A5000C8701C20012181404209920002F1E0226D
:100A6000C2F8001100BF10BD40010020200000208E
:100A700010B50121880300F04BF94FF400701249C2
:100A80000880032088701820C870104800F075F89E
:100A90004FF480600C4908800420C8700B4800F0B7
:100AA0006CF84FF416500A49086000208880C8800E
:100AB000088188810C204881064800F015FC01213E
:100AC000044800F0F7FB10BD1C00002000080140A6
:100AD000300100200038014010B50446012C01D13E
:100AE000002400E0012422464FF40061014800F098
:100AF000D8F810BD000C014070B505460C460CB985
:100B0000002400E00124012D05D1224604210348E0
:100B100000F0C7F800BF00BF70BD0000000C01402E
:100B200000BFFEE721B1026842F00102026004E06A
:100B300002684FF6FE731A400260704710B500223B
:100B4000026847F6F0739A430C6A8B6823430C697A
:100B500023434C6923438C692343CC6923434C6A68
:100B600023438C6A23431A430260CB6843600B68BB
:100B700083604B68C36010BD70472DE9F0410246A9
:100B800000250026002000230024002791F803C040
:100B90000CF00F0591F803C00CF0100CBCF1000F25
:100BA00003D091F802C04CEA050591F800C0BCF1F1
:100BB000000F31D0146800202BE04FF0010C0CFA2C
:100BC00000F3B1F800C00CEA03069E4220D1830076
:100BD0004FF00F0C0CFA03F7BC4305FA03FC4CEA88
:100BE000040491F803C0BCF1280F06D14FF0010CAA
:100BF0000CFA00FCC2F814C00AE091F803C0BCF182
:100C0000480F05D14FF0010C0CFA00FCC2F810C0DF
:100C1000401C0828D1D31460B1F800C0BCF1FF0F0C
:100C200034DD546800202EE000F1080C4FF001087C
:100C300008FA0CF3B1F800C00CEA03069E4221D179
:100C400083004FF00F0C0CFA03F7BC4305FA03FCCA
:100C50004CEA040491F803C0BCF1280F05D100F15F
:100C6000080C08FA0CF8C2F8148091F803C0BCF123
:100C7000480F07D100F1080C4FF0010808FA0CF8F2
:100C8000C2F81080401C0828CED35460BDE8F08123
:100C90000246002093680B400BB1012000E00020C9
:100CA00070470AB1016100E04161704700BFFEE793
:100CB00000BFFEE77047704701460020034A5068B6
:100CC00020F440400843506070470000001002408C
:100CD00029B1064A52690243044B5A6104E0034AAF
:100CE00052698243014B5A61704700000010024074
:100CF00029B1064AD2690243044BDA6104E0034A8F
:100D0000D2698243014BDA61704700000010024053
:100D100029B1064A92690243044B9A6104E0034AEE
:100D200092698243014B9A617047000000100240B3
:100D30000F48006840F001000D490860084640680F
:100D40000C4908400A494860084600680A490840BA
:100D5000074908600846006820F4802008600846BB
:100D6000406820F4FE0048604FF41F008860704720
:100D7000001002400000FFF8FFFFF6FE30B5002132
:100D80000022002400232D4D6D6805F00C0121B1D7
:100D9000042905D0082923D105E0294D056022E06A
:100DA000274D05601FE0254D6D6805F47012234D39
:100DB0006D6805F48034022505EB92421CB9214D83
:100DC000554305600BE01D4D6D6805F400351DB100
:100DD0001C4D5543056002E0194D5543056002E086
:100DE000174D056000BF00BF144D6D6805F0F001A0
:100DF0000909154D6B5C0568DD4045600F4D6D6858
:100E000005F4E061090A104D6B5C4568DD408560C2
:100E10000A4D6D6805F46051C90A0B4D6B5C45685D
:100E2000DD40C560054D6D6805F44041890B074DF7
:100E30006B5CC568B5FBF3F5056130BD0010024081
:100E400000127A0000093D00000000201000002080
:100E500010B501460022002300204A11012A02D1C8
:100E6000094C236806E0022A02D1074C236A01E0FC
:100E7000054C636A01F01F02012494401C400CB130
:100E8000012000E0002010BD0010024001460020BB
:100E9000034A506820F0F00008435060704700009B
:100EA000001002401149096821F480310F4A116095
:100EB0001146096821F480211160B0F5803F03D00C
:100EC000B0F5802F0ED106E00849096841F4803161
:100ED000064A116007E00549096841F4A021034A68
:100EE000116000E000BF00BF70470000001002402A
:100EF00001460020034A506820F4E0600843506037
:100F0000704700000010024001460020034A50686C
:100F100020F4605040EAC100506070470010024069
:100F20000149086670470000000042420246002066
:100F3000044B586820F47C1042EA01031843014B2B
:100F4000586070470010024001460020034A506874
:100F500020F003000843506070470000001002407A
:100F600038B5002000900024002500BF3120FFF795
:100F70006FFF05460098401C00900098B0F5A06FE8
:100F800001D0002DF2D03120FFF762FF08B101241B
:100F900000E00024204638BD704710B500F002F88C
:100FA00010BD00000CB5002001900090334800688F
:100FB00040F480303149086000BF3048006800F4D8
:100FC000003000900198401C0190009818B90198D9
:100FD000B0F5A06FF1D12948006800F4003010B1DD
:100FE0000120009001E0002000900098012843D1EA
:100FF0002348006840F01000214908600846006856
:1010000020F0030008600846006840F00200086015
:101010001A484068194948600846406848600846D0
:10102000406840F4806048600846406820F47C10C6
:1010300048600846406840F4E81048600846006888
:1010400040F08070086000BF0C48006800F000703D
:101050000028F9D00948406820F00300074948609B
:101060000846406840F00200486000BF03484068FE
:1010700000F00C000828F9D10CBD0000001002405F
:10108000002002407047000010B51348006840F08F
:1010900001001149086008464068104908400E499F
:1010A0004860084600680E4908400B490860084639
:1010B000006820F4802008600846406820F4FE00A4
:1010C00048604FF41F008860FFF767FF4FF0006033
:1010D0000449086010BD0000001002400000FFF845
:1010E000FFFFF6FE08ED00E010B50121880700F0D3
:1010F00074F8002853D00121880700F05FF8202100
:101100002748FFF7C5FD08B9012000E0002004468C
:10111000224620212248FFF7C4FD224800682249C8
:101120000978884204D201210846FFF7E5FC0BE06C
:101130001C480068642804D200210120FFF7DCFC71
:1011400002E000201749086016480068401C154955
:10115000086016480088401C14490880084600882A
:10116000B0F57A7F1BDD0020088011480088114906
:10117000114A127821F812000D4841890D48C830F3
:101180000D4A127820F812100B480078401C0A49CA
:10119000087008460078132801DD0020087010BD93
:1011A000000C014014000020250000201800002041
:1011B00012020020260200201A000020CA430282E8
:1011C000704721B1028842F00102028004E00288E7
:1011D0004FF6FE731A400280704730B50246002079
:1011E00000230024158A05EA0103958905EA010414
:1011F00013B10CB1012000E0002030BD1AB1838989
:101200000B43838102E083898B4383817047000015
:10121000002202881D4B98420ED01D4B98420BD0E5
:10122000B0F1804F08D01B4B984205D01A4B984222
:1012300002D01A4B984204D14FF68F731A404B8854
:101240001A43174B984207D0164B984204D04FF6DA
:10125000FF431A40CB881A4302808B8883850B8812
:1012600003850A4B98420BD0094B984208D00E4B8D
:10127000984205D00D4B984202D00D4B984201D1B7
:101280000B7A03860123838270470000002C014003
:10129000003401400004004000080040000C004001
:1012A0000010004000140040004001400044014094
:1012B0000048014021B1828942F40052828104E059
:1012C00082894DF6FF731A408281704702460020E2
:1012D000B1F5007F00D100BF13880B400BB1012096
:1012E00000E00020704700002DE9F04786B0054679
:1012F0000E460024A24600BFA1460027B08900B1D7
:1013000000BF2F462C8A4CF6FF700440F08804433F
:101310002C82AC894EF6F3100440B0883189084322
:10132000718908430443AC81AC8A4FF6FF40044006
:10133000B0890443AC8201A8FFF720FD1F48874213
:1013400002D1DDF810A001E0DDF80CA0A88900F4BE
:10135000004040B10AEBCA0000EB0A1031684900B6
:10136000B0FBF1F807E00AEBCA0000EB0A103168A5
:101370008900B0FBF1F86420B8FBF0F0040120090B
:10138000642101FB1089A88900F4004040B132209B
:1013900000EBC900B0FBF1F000F00700044308E0E7
:1013A000322000EB09106421B0FBF1F000F00F00D7
:1013B00004432C8106B0BDE8F087000000380140EE
:1013C00070B504460D4600BF80212046FFF77EFF22
:1013D0000028F9D02946204600F01EF870BD70B5EF
:1013E00005460C4604E014F8011B2846FFF7E8FF09
:1013F00020780028F7D170BD70B506460C4615461A
:1014000004E014F8011B3046FFF7DAFF281EA5F1AF
:101410000101CDB2F5D170BDC1F3080282807047E1
:1014200000BFFEE7002106E0002201E0531C9AB253
:10143000642AFBDB491C8142F6D370478AB0FFF770
:101440000AF90020FFF748FB052225A12648FFF7EF
:10145000D3FF1E2025490870002440E000200090A2
:10146000059000240DE0224931F81410009808443A
:1014700000901F48C83030F81400059908440590C2
:10148000641C142CEFDB14210098B0FBF1F00090E9
:101490000598B0FBF1F00590C8211648FEF71CFF37
:1014A00040F6E4410598484340F6FF71B0FBF1F087
:1014B000450040F6E4410098484340F6FF71B0FB18
:1014C000F1F62B4632460CA10A48FEF781FE094987
:1014D0000548FFF784FF42F21070FFF7A3FFBDE756
:1014E00048656C6C6F00000000380140250000204A
:1014F000260200202800002041444331203A2025C4
:10150000646D562041444336203A2025646D5620B0
:101510000D0A00003415000800000020280000001B
:10152000280100085C15000828000020F0090000D0
:10153000440100080000000001020304010203044A
:101540000607080902040608000000000000000069
:0C1550000000000000000000000000008F
:04000005080000ED02
:00000001FF
