:020000040800F2
:100000006806002089010008130400080B0400089A
:100010000F040008E5020008890500080000000040
:10002000000000000000000000000000390400088B
:10003000E90200080000000015040008250500087A
:10004000A3010008A3010008A3010008A301000800
:10005000A3010008A3010008A3010008A3010008F0
:10006000A3010008A3010008A3010008A3010008E0
:10007000A3010008A3010008A3010008A3010008D0
:10008000A3010008A3010008A3010008A3010008C0
:10009000A3010008A3010008A3010008A3010008B0
:1000A000A3010008A3010008A3010008A3010008A0
:1000B000A3010008A3010008A3010008A301000890
:1000C000A3010008A3010008A3010008A301000880
:1000D000A3010008A3010008A3010008A301000870
:1000E000A3010008A3010008A301000800F002F822
:1000F00000F03AF80AA090E8000C82448344AAF188
:100100000107DA4501D100F02FF8AFF2090EBAE885
:100110000F0013F0010F18BFFB1A43F0010318473B
:10012000BC040000DC040000103A24BF78C878C189
:10013000FAD8520724BF30C830C144BF04680C60ED
:10014000704700000023002400250026103A28BF35
:1001500078C1FBD8520728BF30C148BF0B60704739
:100160001FB51FBD10B510BD00F031F81146FFF7E7
:10017000F7FF00F019FA00F04FF803B4FFF7F2FFB1
:1001800003BC00F057F800000948804709480047C1
:10019000FEE7FEE7FEE7FEE7FEE7FEE7FEE7FEE737
:1001A000FEE7FEE704480549054A064B7047000094
:1001B00029050008ED0000086800002068060020FE
:1001C000680200206802002070477047704775463B
:1001D00000F02CF8AE4605006946534620F00700B3
:1001E000854618B020B5FFF7DDFFBDE820404FF091
:1001F00000064FF000074FF000084FF0000B21F011
:100200000701AC46ACE8C009ACE8C009ACE8C009DD
:10021000ACE8C0098D46704710B50446AFF30080C6
:100220002046BDE81040FFF7A8BF00000048704717
:100230000400002001491820ABBEFEE726000200A2
:10024000704710B500F00CF800F003F800F02AF841
:1002500010BD10B501214FF4C06000F0DDF810BDF5
:1002600010B501211C2000F0D7F84FF460400A4976
:100270000880022088704820C870084800F035F8CF
:1002800041F2240004490880022088701020C870C0
:10029000034800F02AF810BD0000002000100140C3
:1002A000000C014010B50121880300F0B5F810BD25
:1002B00070B505460C46012D05D1224604210348A0
:1002C00000F09EF800BF00BF70BD000000080140B4
:1002D00010B5044622462021014800F091F810BDD7
:1002E000000C014000BFFEE770472DE9F0410246D7
:1002F00000250026002000230024002791F803C0D9
:100300000CF00F0591F803C00CF0100CBCF1000FBD
:1003100003D091F802C04CEA050591F800C0BCF189
:10032000000F31D0146800202BE04FF0010C0CFAC4
:1003300000F3B1F800C00CEA03069E4220D183000E
:100340004FF00F0C0CFA03F7BC4305FA03FC4CEA20
:10035000040491F803C0BCF1280F06D14FF0010C42
:100360000CFA00FCC2F814C00AE091F803C0BCF11A
:10037000480F05D14FF0010C0CFA00FCC2F810C078
:10038000401C0828D1D31460B1F800C0BCF1FF0FA5
:1003900034DD546800202EE000F1080C4FF0010815
:1003A00008FA0CF3B1F800C00CEA03069E4221D112
:1003B00083004FF00F0C0CFA03F7BC4305FA03FC63
:1003C0004CEA040491F803C0BCF1280F05D100F1F8
:1003D000080C08FA0CF8C2F8148091F803C0BCF1BC
:1003E000480F07D100F1080C4FF0010808FA0CF88B
:1003F000C2F81080401C0828CED35460BDE8F081BC
:100400000AB1016100E04161704700BFFEE700BF33
:10041000FEE770477047000029B1064A926902431F
:10042000044B9A6104E0034A92698243014B9A614A
:100430007047000000100240704710B500F002F84D
:1004400010BD00000CB500200190009033480068FA
:1004500040F480303149086000BF3048006800F443
:10046000003000900198401C0190009818B9019844
:10047000B0F5A06FF1D12948006800F4003010B148
:100480000120009001E0002000900098012843D155
:100490002348006840F010002149086008460068C1
:1004A00020F0030008600846006840F00200086081
:1004B0001A4840681949486008464068486008463C
:1004C000406840F4806048600846406820F47C1032
:1004D00048600846406840F4E810486008460068F4
:1004E00040F08070086000BF0C48006800F00070A9
:1004F0000028F9D00948406820F003000749486007
:100500000846406840F00200486000BF0348406869
:1005100000F00C000828F9D10CBD000000100240CA
:10052000002002407047000010B51348006840F0FA
:1005300001001149086008464068104908400E490A
:100540004860084600680E4908400B4908600846A4
:10055000006820F4802008600846406820F4FE000F
:1005600048604FF41F008860FFF767FF4FF000609E
:100570000449086010BD0000001002400000FFF8B0
:10058000FFFFF6FE08ED00E000BFFEE7002108E0F7
:10059000002201E0531C9AB242F210739A42F9DB36
:1005A000491C8142F4D37047FFF74BFE15E001214F
:1005B0000846FFF77DFE0120FFF78AFE4FF47A70B0
:1005C000FFF7E4FF00210120FFF772FE0020FFF794
:1005D0007FFE4FF47A70FFF7D9FFE8E7FC050008CB
:1005E00000000020040000002801000800060008A8
:1005F0000400002064060000440100080000000020
:04000005080000ED02
:00000001FF
